:020000040000FA
:100000000C94D5000C94FD000C94FD000C94FD00A4
:100010000C94FD000C94FD000C94FD000C94FD006C
:100020000C94FD000C94FD000C943C0C0C94A50C5D
:100030000C94BD1B0C94FD000C94FD000C94FD0071
:100040000C94FD000C94E70E0C94FD000C94FD0044
:100050000C94FD000C94FD000C94FD000C94F20B2C
:100060000C94FD000C94FD000C94FD000C94FD001C
:100070000C94FD000C94FD000C94FD000C94FD000C
:100080000C94FD000C94FD000C94FD000C94FD00FC
:100090000C94FD000C94FD000C94FD000C94FD00EC
:1000A0000C94FD000C94FD000C94FD00080B000264
:1000B0000202000009040000010202000005240001
:1000C0001001052401010104240206052406000193
:1000D0000705810310004009040100020A00000026
:1000E00007050202400000070583024000000403E8
:1000F000090412010002EF0201409A23118000015D
:10010000010203014164616672756974004369729A
:100110006375697420506C617967726F756E6400E5
:1001200000000000240027002A002D0030000000FD
:100130000000250028002B002E00310000000000E8
:100140002300260029002C002F00040404040403CB
:100150000405020202020403020202020606060667
:10016000060604040202020404040802011040808E
:10017000401020408040800802040180402010028E
:1001800001108010204040200000000200090F00F4
:1001900000030401000C000000000000000000004B
:1001A0000000000000000000C01B11241FBECFEFA4
:1001B000DAE0DEBFCDBF12E0A0E0B1E0E2E6FDE3B1
:1001C00002C005900D92AC32B107D9F723E0ACE242
:1001D000B2E001C01D92A135B207E1F710E0C5ED14
:1001E000D0E004C02197FE010E94991EC43DD107B2
:1001F000C9F70E94F71B0C94AF1E0C9400008F925D
:100200009F92AF92BF92FF920F931F93CF93DF9372
:10021000F0904A032BE02F1508F44AC020914C03BC
:1002200008E512E0021B110927FD1395000F111FAD
:10023000000F111F20914B03C8E8D0E0C21BD10969
:1002400027FDD395CC0FDD1FCC0FDD1F4E010D2EEA
:10025000000CAA08BB089801012E000C440B550B9A
:10026000281939094A095B09DC010E94541E24EB54
:1002700030E040E050E00E942A1E820E931EA41E31
:10028000B51E8C169D062CF0E801801691060CF424
:10029000E4012FB7F8948F2D90E02297FC01EE0F28
:1002A000FF1FE80FF91FEB5DFC4FD283C1832FBF07
:1002B000DF91CF911F910F91FF90BF90AF909F90D2
:1002C0008F90089590917802911103C08FEF9FEF66
:1002D00008954FB7F89492E09093E9009091F2005E
:1002E000292F30E01216130614F421E030E0232BFE
:1002F00029F084E6809375028091F100992339F00A
:100300002091F200211103C02BE62093E8004FBF9B
:100310009923E1F290E008952FB7F89483E0809359
:10032000E9009091E800892F807295FF04C09091B8
:10033000F20080E4891B2FBF089580916D02811126
:100340000DC082E08093690284E080936A0210927B
:100350006C0210926B0281E080936D0289E692E05C
:10036000089581508F3008F047C0E82FF0E0E55441
:10037000FE4F0C94991ED801DC01CA01D001D401B2
:10038000FC01FC01FC01DF01E501E901ED01F301E4
:10039000FC01F701809180008F77809380000895A1
:1003A000809180008F7DF9CF80918000877FF5CF8D
:1003B00084B58F7784BD089584B58F7DFBCF809100
:1003C00090008F77809390000895809190008F7DAA
:1003D000F9CF80919000877FF5CF8091C0008F7713
:1003E0008093C00008958091C0008F7DF9CF8091E7
:1003F000C200877F8093C2000895CF93DF93282F98
:1004000030E0F901E857FE4F8491F901E759FE4FBA
:10041000D491F901E65BFE4FC491CC23A1F0811188
:100420000E94B101EC2FF0E0EE0FFF1FE45CFE4FE5
:10043000A591B491EC91ED2381E090E009F480E086
:10044000DF91CF91089580E090E0FACF1F93CF9392
:10045000DF93282F30E0F901E857FE4F8491F9012E
:10046000E759FE4FD491F901E65BFE4FC491CC23CE
:10047000A9F0162F81110E94B101EC2FF0E0EE0FD0
:10048000FF1FE25DFE4FA591B4918FB7F894EC91F8
:10049000111108C0D095DE23DC938FBFDF91CF917F
:1004A0001F910895DE2BF8CFCF93DF9390E0FC01EE
:1004B000E759FE4F2491865B9E4FFC01849188236F
:1004C000D1F090E0880F991FFC01E05EFE4FA591EE
:1004D000B491FC01E25DFE4FC591D49161110EC053
:1004E0009FB7F8948C91E22FE0958E238C9328810E
:1004F000E223E8839FBFDF91CF9108958FB7F894EF
:10050000EC91E22BEC938FBFF6CF3FB7F89480913C
:10051000650290916602A0916702B091680226B5CB
:10052000A89B05C02F3F19F00196A11DB11D3FBF2B
:10053000BA2FA92F982F8827BC01CD01620F711DFA
:10054000811D911D43E0660F771F881F991F4A95F3
:10055000D1F708958F929F92AF92BF92CF92DF9280
:10056000EF92FF926B017C010E9485024B015C01BE
:10057000C114D104E104F104B9F00E9485026819A4
:1005800079098A099B09683E73408105910580F3CA
:1005900021E0C21AD108E108F10888EE880E83E054
:1005A000981EA11CB11CE4CFFF90EF90DF90CF907C
:1005B000BF90AF909F908F90089510927802109204
:1005C0007702109276028091D70081608093D700E5
:1005D00080EA8093D80089B58F7E89BD89B5826015
:1005E00089BD09B400FEFDCF61E070E080E090E0DD
:1005F0000E94AA028091D8008F7C80618093D800ED
:100600008091E000807F8093E0008091E1008E7E09
:100610008093E1008DE08093E200089540913E02D6
:1006200050913F0220913C0230913D024217530706
:10063000B4F49091E8009570E1F39091E80092FD98
:1006400019C08093F10080913E0290913F02019683
:100650008F739927892B19F48EEF8093E80080918E
:100660003E0290913F02019690933F0280933E029A
:1006700081E0089580E00895EF92FF920F931F9319
:10068000CF93DF93F82E192FE62E042F81E0860FEB
:10069000880F0E940E0383E00E940E03CF2DD12FFE
:1006A000EC0EFD2EF11CCE15DF05B9F007FF13C0CF
:1006B000FE0184910E940E03182F80E00E940E0319
:1006C000812321968111EFCFDF91CF911F910F915F
:1006D000FF90EF9008958881EDCF81E0F5CFDF9214
:1006E000EF92FF920F931F93CF93DF93D82E8A013F
:1006F000EB017B01E40EF51ECE15DF0559F0D7FEA8
:1007000012C0FE0184910E940E0321968111F4CF44
:100710000FEF1FEFC801DF91CF911F910F91FF9055
:10072000EF90DF9008958881EECF0F931F93CF93C2
:10073000DF931F92CDB7DEB782E0898342E450E0B9
:100740006CEA70E080E80E946F030E949D01DC016A
:1007500012960D911C910115110589F0D801ED91AA
:10076000FC910280F381E02DBE016F5F7F4FC801D5
:10077000099597FD04C0F80100851185ECCF8981AA
:100780000F90DF91CF911F910F9108958F929F92BB
:10079000AF92BF92CF92DF92EF92FF920F931F938F
:1007A000CF93DF936C017B018A0180910B01882339
:1007B00009F45BC080917802882309F456C08091C7
:1007C000760280FF05C08091E00082608093E000A7
:1007D000E801B12C8AEFA82E93E0892E2AE3922E0D
:1007E000209711F4BB20D9F10E948C0181110AC01D
:1007F000AA94AA20D1F161E070E080E090E00E942C
:10080000AA02EECF8C171D0611F00CF08C2F9FB7AB
:10081000F8948092E9002091E80025FD02C09FBF76
:10082000DFCF282F30E0C21BD30BF701815020F01F
:1008300041914093F100FACFE20EF31EBB2021F06C
:100840009092E800B12CEBCF8091E80085FDE7CFD6
:100850009092E800BB24B394209709F3F3CF84E689
:1008600080934102101611063CF081E090E0F60101
:100870009383828310E000E0C801DF91CF911F9144
:100880000F91FF90EF90DF90CF90BF90AF909F902F
:100890008F900895CF93DF931F92CDB7DEB7698312
:1008A000DC01ED91FC910280F381E02D41E050E00C
:1008B000BE016F5F7F4F09950F90DF91CF91089533
:1008C00083E08093E9008091F200882319F08AE3A5
:1008D0008093E80008950E948C0190E00895FC0147
:1008E0008485958597FD05C02FEF3FEF35872487D9
:1008F00008950C946201CF93DF93EC018C859D8564
:1009000097FF04C00E9462019D878C878C859D851E
:10091000DF91CF910895FC018485958597FD0BC0EB
:100920009FB7F89482E08093E9008091F2009FBF26
:1009300090E0019608959FB7F89482E08093E900D3
:100940008091F2009FBF90E00895FC01019000208B
:10095000E9F73197AF01481B590BBC0185ED92E0D7
:100960000C94C603CF93DF930E94A504EC018CE2A4
:1009700091E00E94A5048C0F9D1FDF91CF910895F7
:100980008F929F92AF92BF92CF92DF92EF92FF929F
:100990000F931F93CF93DF93CDB7DEB7A1970FB619
:1009A000F894DEBF0FBECDBF6B017C01F7FE41C0E6
:1009B0006DE285ED92E00E944A048C0122273327E4
:1009C000A9012C193D094E095F0919A2CE01819692
:1009D0007C019AE0892E912CA12CB12CCA01B9017D
:1009E000A50194010E945C1E605DF70162937F0186
:1009F000211531054105510589F790E080E03097D8
:100A000019F0CF010E94A504800F911FA1960FB687
:100A1000F894DEBF0FBECDBFDF91CF911F910F9134
:100A2000FF90EF90DF90CF90BF90AF909F908F900E
:100A30000895AC019B0119A28E010F5D1F4F8AE042
:100A4000C82ED12CE12CF12CCA01B901A7019601C5
:100A50000E945C1E605DF80162938F0121153105D3
:100A60004105510589F790E080E0309779F2CF0198
:100A70000E94A504CBCFCF93DF9300D0CDB7DEB7D4
:100A800060E082E00E94540261E08DE00E94540226
:100A900001E010E082E00E94FD01209132023091DD
:100AA0003302019799F41A82198242E050E0BE01A4
:100AB0006F5F7F4FC9010E9407158FE291E00E948E
:100AC000B20481E090E00E943216E4CF1A830983D9
:100AD00042E050E0BE016F5F7F4FC9010E940715E1
:100AE00061E08DE00E94260284E491E00E94B2045D
:100AF00085E591E00E94B2048EE291E0E0CFCF93D1
:100B0000DF93CDB7DEB729970FB6F894DEBF0FBEDF
:100B1000CDBF60E087E00E94540219821A821B82D6
:100B20001C82D12CC12C712C612C94E0892E912C2B
:100B300046E050E0BE016F5F7F4F8091320290919E
:100B400033020E94471683E691E00E94A504698162
:100B50007A818B819C810E94C0048CE291E00E948A
:100B6000A50481E090E00E94321689819A81AB81D0
:100B7000BC810197A105B105D9F600913002109111
:100B800031028FEF9FEF99878887B12C90E0280181
:100B9000A1E14A0E511C89E0382E0FB6F8940F924D
:100BA000F801828D882309F465C08150828F80818D
:100BB0009181892BB1F480912C0290912D02892B87
:100BC00039F0E0912C02F0912D0282A18F5F82A377
:100BD00080912C0290912D02D80115969C938E93B2
:100BE0001497F8018085882339F0C80108960E947F
:100BF000EE0F81110E9481120F900FBE87E00E94BC
:100C0000FD018C01019709F0A4C187E791E00E94E2
:100C1000B20481E090E00E943216672821F48AE055
:100C200090E00E943216BFEFCB1ADB0A8EE291E011
:100C30000E94B2048EE291E00E94B2048AE991E03F
:100C40000E94A504B6010D2C000C880B990B0E9484
:100C5000C0048CE291E00E94A5048EE291E00E9423
:100C6000B2048EE291E00E94B20484E690E00E9419
:100C7000321679C128853985232B09F4BDCF91110E
:100C800009C08091AF028D838091AD029091AE0238
:100C90009F838E830F900FBE0E949D100FB6F89415
:100CA0000F92D8015D968C915D978F3F11F45D9600
:100CB0001C92F801868D8F3F09F4168E0F900FBE9F
:100CC000BE01685F7F4FCE0105960E94BB0F811168
:100CD000AFC0C8010E94A310882309F4A3C0D801A3
:100CE0008D919C91892B09F078C00FB6F8940F92E2
:100CF000F801E480F580E114F10409F491C0D70112
:100D000056968C915697E0912C02F0912D0296897F
:100D1000891708F07AC01C962D913C911D9737FDDC
:100D20000CC0E0912C02F0912D0296899401291BB0
:100D300031091D963C932E931C97839DC00111246D
:100D400080559D4FF701228533852817390709F013
:100D500054C05701F2E0AF0EB11CC5010E94F01063
:100D6000E0912C02F0912D02E689D7015696EC9382
:100D70008091D4028E1710F4E093D4023E9EF001CD
:100D80001124E055FD4F0180F281E02DD701159629
:100D9000FC93EE9314978481958117969C938E9380
:100DA0001697A481B5811396BC92AE921297B58224
:100DB000A482D7015696EC915697E39DF001112439
:100DC000E055FD4F1B96FC93EE931A9780818F5F41
:100DD0008083BB24B3940F900FBE68857985C201D0
:100DE0000E946212C8010E94AE100E943F1381113E
:100DF00002C00E94811291E0D0CEE0912C02F091CD
:100E00002D028689F701868BE4CFE0912C02F091C8
:100E10002D02BB24B39491969C9186899817D8F2A1
:100E2000B12CD9CFC8010E94AE100E943F13E3CF6E
:100E3000C8010E94AE100E943F13C8010E94A31077
:100E40008823C9F2BB2009F4D9CE0FB6F8940F92CB
:100E5000F8018189882309F47AC00688F789E02D92
:100E6000908184E0891BD80114960D911C91011585
:100E7000110509F4C1CEF80191A1981708F4982F33
:100E8000D80156968C915697981709F4B5CE92963C
:100E90002C919297213009F0AFCE56969C9356979D
:100EA0001C962D913C911D9737FD07C09401291B7D
:100EB00031091D963C932E931C97B9E08B9FC0017E
:100EC000112480559D4FF801228533852817390755
:100ED00009F092CE7801F2E0EF0EF11CC7010E94FA
:100EE000F010F801A6898091D4028A1710F4A0931B
:100EF000D40289E08A9FD0011124A055BD4F1196DC
:100F00000D90BC91A02DF801B583A48314962D916A
:100F10003C911597378326831496ED91FC91159794
:100F2000F382E2821596FC92EE921497D8015696BF
:100F3000EC915697E89FF0011124E055FD4F1B9668
:100F4000FC93EE931A9780818F5F808355CE80E06B
:100F50008ACF89E891E00E94B20481E090E00E948B
:100F6000321610E000E050E040E070E060E0809178
:100F70003002909131020E94071581E090E00E94BA
:100F800032163801D5CDCF93DF9300D000D000D0FA
:100F9000CDB7DEB760E084E00E94540280914A033E
:100FA0008C3008F051C061E083E00E9454028091CF
:100FB0004A03282F30E0F901EE0FFF1FE20FF31F65
:100FC000EB5DFC4F9081907C9360908310924B037B
:100FD00010924C032CE0622F0E948D1E829FB00164
:100FE000112430E020E0AB01420F531FFA01EE0F55
:100FF000FF1FE40FF51FEB5DFC4F908196FD16C0BF
:101000002F5F3F4F2C30310571F781110FC01092C7
:10101000800082E08093810010928500109284000D
:10102000B19A80916F00826080936F00E0914A03D3
:101030008E2F90E0FC01EE0FFF1FE80FF91FEB5D14
:10104000FC4F80818064808319821A821B821C82FB
:1010500019E099249394EE24EA94FE2C46E050E0A3
:10106000BE016F5F7F4F80913202909133020E94E8
:10107000471681E090E00E94321680EB91E00E94DA
:10108000A50469817A818B819C810E94C0048CE2D5
:1010900091E00E94A50481E090E00E9432168981CF
:1010A0009A81AB81BC810197A105B10509F0FBC014
:1010B00090E080E00E94FF0083EC91E00E94B20487
:1010C0008EE291E00E94B20481E090E00E9432162C
:1010D000809137028F5F809337024091AD0250912B
:1010E000AE02E0912C02F0912D02C284D3842481BF
:1010F000358186819781D90115969C938E9314979B
:1011000086819781DC0113963C932E9312979F0161
:101110002E5F3F4FD60111966D917C911297621709
:10112000730721F412969C938E931197138612865F
:10113000F60180818150808380819A012A5F3F4F30
:10114000E0912C02F0912D023383228380912C02B6
:1011500090912D022417350708F0DCC09C012E5F0A
:101160003F4FA0907902B0907A02DC0112964D9127
:101170005C91F50133964F3F540709F0C2C0D50189
:101180001796ED91FC9142815381DC0115965C9399
:101190004E931497DA0115963C932E931497DC0125
:1011A0001796FC93EE931697338322831B96BC927B
:1011B000AE921A97F50180818F5F80830FB6F89405
:1011C0000F928091370281508093370280913702CD
:1011D000882309F4E5C080E00F900FBE811102C0A2
:1011E0000E9481123FB7F894809165029091660247
:1011F000A0916702B091680226B5A89B05C02F3F59
:1012000019F00196A11DB11D3FBFBA2FA92F982F2C
:101210008827820F911DA11DB11D03E0880F991F22
:10122000AA1FBB1F0A95D1F724E0422E512C612C36
:10123000712C3FB7F894409165025091660260911D
:1012400067027091680226B5A89B06C02F3F21F067
:101250004F5F5F4F6F4F7F4F3FBF762F652F542FEC
:101260004427420F511D611D711DE3E0440F551FBE
:10127000661F771FEA95D1F7481B590B6A0B7B0B4A
:10128000483E534061057105A0F2E1E04E1A510855
:101290006108710888519C4FAF4FBF4F41145104F2
:1012A0006104710431F684E00E94FD016C01019734
:1012B00009F0D4CE8AE590E00E94FF00DE82CD8264
:1012C00042E050E0BE016B5F7F4F8091320290910F
:1012D00033020E94071560E08DE00E9426028FEC29
:1012E00091E00E94B20481EE91E00E94B2048DEE82
:1012F00091E00E94B2048AE090E00E943216AECEE5
:10130000FB0162817381DB01CD90DC904C155D05A2
:10131000B8F739CFAC014E5F5F4F60907B027090A1
:101320007C02DC0112966D917C91F30133966F3F44
:10133000760769F5D3011796ED91FC91628173816F
:10134000DC0115967C936E931497DB0115965C93E4
:101350004E931497DC011796FC93EE9316975383E4
:1013600042831B967C926E921A97F30180818F5F65
:10137000808380915C0290915D022817390708F004
:101380001DCF30935D0220935C0218CFF601C2801E
:10139000D380D601AD90BC906A157B05B8F7CECF4F
:1013A0008091AC02882309F416CF80919402909129
:1013B0009502F0E0E0E020918F02211165C0EF2B53
:1013C00059F0E0917B02F0917C0280818111EAC0AA
:1013D000F0925D02E0925C0220913402309135027D
:1013E0002115310509F4B4C18091370281119FC1E3
:1013F0008091AD029091AE0201969093AE028093DF
:10140000AD02009701F540917B0250917C02609102
:10141000790270917A0270937C0260937B02509300
:101420007A02409379024091AF024F5F4093AF023E
:10143000E0917B02F0917C0240814111C1C0F092A9
:101440005D02E0925C0240915C0250915D0200E01E
:101450008417950708F05FC1E0912C02F0912D02EE
:10146000E6891E9FF0011124E055FD4F80818230F6
:1014700008F001E080913602811103C0002309F4D5
:101480005FC1909236025CC1DC011696ED91FC9131
:10149000C488D5884685578520893189DA01159613
:1014A0003C932E93149720893189D90113965C932C
:1014B0004E931297AF01445F5F4FD60111966D9125
:1014C0007C9112976417750721F412963C932E9322
:1014D0001197158A148AD6012C9121502C93C2841D
:1014E000D3842481358146815781D90115965C9337
:1014F0004E93149746815781DA0113963C932E93AD
:1015000012979F012E5F3F4FD60111966D917C91EE
:1015100012976217730721F412965C934E931197FA
:1015200013861286D6014C9141504C93A689409166
:10153000D4024A1710F4A093D4021A9FD0011124A8
:10154000A055BD4F11966D917C9175836483DB012D
:1015500014964D915C9115975783468314964D913F
:101560005C91DA0113963C932E931297DB0115964A
:101570003C932E9314973689319FD0011124A055A6
:10158000BD4FB387A2872C912F5F2C93A0912C0283
:10159000B0912D0256962C91321708F40CCF9092F0
:1015A000360209CFE0917B02F0917C020580F68142
:1015B000E02D8081918190935D0280935C020CCF3D
:1015C000E0917B02F0917C020580F681E02D408164
:1015D000518150935D0240935C0235CFE0917B02D4
:1015E000F0917C020580F681E02D0680F781E02DE8
:1015F000428153818417950728F450935D024093EC
:101600005C022ACFA284B3844481558166817781AC
:10161000DA0115967C936E93149766817781DB01CE
:1016200013965C934E931297AF014E5F5F4FD501B7
:101630001196CD90DC901297C416D50621F412961F
:101640007C936E93119713861286D5016C9161502D
:101650006C93648875886114710429F166857785B7
:10166000C088D188DB011596DC92CE921497C08891
:10167000D188D60113967C936E931297D30111965D
:10168000AD90BC901297BF01645F7F4FA616B7065E
:1016900021F41296DC92CE921197158A148AD30106
:1016A0006C9161506C93A6896091D4026A1710F412
:1016B000A093D4021A9FD0011124A055BD4F1196BA
:1016C000CD90DC90D582C482D60114966D917C9128
:1016D00015977783668314966D917C91DB01139641
:1016E0005C934E931297D60115965C934E93149784
:1016F0005689519FD0011124A055BD4FB387A287B1
:101700004C914F5F4C93E0912C02F0912D02468951
:10171000541708F001E0E0917B02F0917C024081D7
:1017200041115CCFF0925D02E0925C0295CE809117
:1017300034029091350201969093350280933402E1
:101740002150310909F050CE109235021092340226
:1017500080913602882309F43ECD0E94811281E0F7
:101760003BCD0F931F938FEF9FEF9093E2028093F7
:10177000E10262E081E00E94751B90933302809346
:10178000320260E081E00E94751B909331028093E9
:10179000300210E000E023E040E850E06FEF71E03D
:1017A0008BE395E00E944D1A22E040E850E069E0AA
:1017B00072E083EC97E00E944D1A21E040E850E08F
:1017C00064E172E08FE795E00E944D1A50E040E03E
:1017D00070E060E080913002909131021F910F9192
:1017E0000C9407151F920F920FB60F9211242F938E
:1017F0003F938F939F93AF93BF938091610290919A
:101800006202A0916302B09164023091600226E00E
:10181000230F2D3758F50296A11DB11D20936002AC
:101820008093610290936202A0936302B09364027A
:101830008091650290916602A0916702B091680262
:101840000196A11DB11D8093650290936602A0933D
:101850006702B0936802BF91AF919F918F913F91C2
:101860002F910F900FBE0F901F90189529E8230F0E
:101870000396A11DB11DD2CF1F920F920FB60F92EA
:1018800011248F939F938091E1009091E100937FC9
:101890009093E10083FF0FC01092E90091E09093D4
:1018A000EB001092EC0092E39093ED00109278021E
:1018B00098E09093F00082FF1CC093E09093E900C1
:1018C0009091F200992319F09AE39093E800909197
:1018D0004102992329F09091410291509093410245
:1018E00090917502992329F09091750291509093EF
:1018F000750284FF18C08091E2008E7E8160809323
:10190000E2008091E1008F7E8093E1008091760279
:101910008E7E8061809376029F918F910F900FBE93
:101920000F901F90189580FFF7CF8091E2008E7E78
:1019300080618093E2008091E1008E7E8093E100DF
:10194000809176028E7E8160E5CF1F920F920FB656
:101950000F921124CF92DF92EF92FF920F931F9379
:101960002F933F934F935F936F937F938F939F93A7
:10197000AF93BF93EF93FF93CF93DF93CDB7DEB7D2
:101980006C97DEBFCDBF1092E9008091E80083FF25
:101990002FC089E0FE017596EE2EDF2E815029F0D2
:1019A0009091F10090833196F9CF84E6809375028F
:1019B00082EF8093E8008D8987FF39C09091E8001D
:1019C00090FFFCCF982F907609F033C19E894F8904
:1019D000588D2F89F88C911131C0803861F5809134
:1019E00077028093F1001092F1008EEF8093E8006F
:1019F0006C960FB6F894DEBF0FBECDBFDF91CF91CE
:101A0000FF91EF91BF91AF919F918F917F916F91D6
:101A10005F914F913F912F911F910F91FF90EF9008
:101A2000DF90CF900F900FBE0F901F9018959EEFF4
:101A30009093E800C7CF1092F100D5CF913059F4C0
:101A40008111D3CF4130510581F6809177028D7F8E
:101A500080937702CACF933049F48111C6CF4130C9
:101A6000510519F6809177028260F2CF953041F4EA
:101A70008091E80080FFFCCF20682093E300B5CF81
:101A8000963009F0A8C00B8D1C8D22E01092E90061
:101A900010923F0210923E02F2122EC010923D02AE
:101AA00010923C020E9495031F8299E09983FA826A
:101AB00091E09E8390EA98879AEF998720913E0261
:101AC00030913F02275F3F4F3C832B838D831092E1
:101AD000E90010923F0210923E0210933D020093E3
:101AE0003C0249E050E0BE016F5F7F4F80E00E9402
:101AF0006F030E94950379CF10933D0200933C023F
:101B00000E949D01DC0112960D911C910115110599
:101B100009F457C1D801ED91FC910480F581E02DC5
:101B20006E2D7D2DC8010995009709F045C1F8017A
:101B300000851185EBCFF3E0FF120EC08F8988235B
:101B400009F440C0823061F440E862E18DE091E048
:101B50000E943C03811149CF81E28093EB0048CF82
:101B6000813029F440E868E084E091E0F1CF8330EF
:101B700099F70E949D01DC011296ED90FC908E0178
:101B80000F5F1F4F6801E114F10479F0D701ED9167
:101B9000FC910680F781E02DB801C7010995080F77
:101BA000111DF701E084F184EECFD8011C92F601FB
:101BB00001900020E9F73197BF016C197D0940E0E1
:101BC000C601C6CF6EEE70E0FB01449150E080E8A4
:101BD0000E946F030ACF973009F4BECF983021F4EA
:101BE00081E08093F10001CF993009F0FECE83703F
:101BF00009F0B2CFE4E1F1E081E031E096E3219138
:101C0000222371F08093E9003093EB00DF011197FC
:101C10002C912093EC009093ED008F5F873079F743
:101C20008EE78093EA001092EA008F898093780211
:101C3000DCCE8B8D9C8D1092E90010923F021092A9
:101C40003E0290933D0280933C02898D81119AC09F
:101C50008E899D89913A49F4813209F07DCF47E020
:101C600050E064E071E080E0B3CF913209F074CFCE
:101C7000833269F48F89988DB0E0A0E080930001F1
:101C800090930101A0930201B0930301AECE803284
:101C9000A9F48091E80082FFFCCF88E0E4E0F1E065
:101CA000815029F09091F10090833196F9CF84E62C
:101CB000809375028BEF8093E80097CE823209F013
:101CC00094CE8F8980930B01EEEFFFE7859194917D
:101CD0008B3F9C4D51F1E0E0F8E080910401909140
:101CE0000501A0910601B0910701803B9440A10538
:101CF000B105F1F480910B0180FD1AC0EE3F8AE03E
:101D0000F80789F587E797E79183808380916000E2
:101D10008093400288E19BE00FB6F894A8958093E9
:101D200060000FBE9093600060CEEEEFFAE0D5CF7A
:101D3000808191818737974709F057CEA895809188
:101D40006000886180936000809140028093600011
:101D5000EE3F2AE0F20789F08091FE0A9091FF0A97
:101D60009183808342CE808191818737980751F299
:101D70009093FF0A8093FE0AC5CF1092FF0A10923B
:101D8000FE0A33CE0E949D01DC0112960D911C913A
:101D90000115110509F4E0CED801ED91FC910190F7
:101DA000F081E02D6E2D7D2DC801099581111DCE8C
:101DB000F80100851185ECCF181619060CF415CE24
:101DC000CBCEF1E0FF12B7CE62EF70E0FDCE1F92F6
:101DD0000F920FB60F9211242F933F934F935F935F
:101DE0006F937F938F939F93AF93BF93CF93DF9323
:101DF000EF93FF9380913B02C0914903D0E087FFAE
:101E000024C0109285001092840080913B028F5F65
:101E100080933B0280913B02082E000C990B8C179B
:101E20009D0724F480913B028C30C4F180918400A2
:101E300090918500049680329E4408F47AC0809187
:101E4000840090918500049676C080913B02082E14
:101E5000000C990B8C179D07C4F6E0913B028E2F66
:101E6000EE0F990BFC01EE0FFF1FE80FF91FEB5D62
:101E7000FC4F808186FFC9CFE0913B028E2FEE0F91
:101E8000990BFC01EE0FFF1FE80FF91FEB5DFC4FF4
:101E9000808160E08F730E942602B7CF209184007A
:101EA00030918500E0913B028E2FEE0F990BFC01E3
:101EB000EE0FFF1FE80FF91FEB5DFC4F8181928150
:101EC000820F931F9093890080938800E0913B02DA
:101ED0008E2FEE0F990BFC01EE0FFF1FE80FF91F7D
:101EE000EB5DFC4F808186FF11C0E0913B028E2F9D
:101EF000EE0F990BFC01EE0FFF1FE80FF91FEB5DD2
:101F0000FC4F808161E08F730E942602FF91EF9168
:101F1000DF91CF91BF91AF919F918F917F916F9101
:101F20005F914F913F912F910F900FBE0F901F9097
:101F3000189580E29EE490938900809388008FEF4B
:101F400080933B02E3CFE0917B02F0917C028081A1
:101F5000811107C08FEF9FEF90935D0280935C0229
:101F60000895E0917B02F0917C020580F681E02DDE
:101F700080819181F1CFFC01DB010FB6F8940F92C3
:101F80004091AD025091AE022D913C9111972F3F9F
:101F9000320711F1818192816091AF0270817617D1
:101FA00049F04817590730F01D921C9281E00F90BC
:101FB0000FBE0895481B590B42175307A8F7241B5F
:101FC000350B2D933C938091AF0280838091AD02BD
:101FD0009091AE029283818380E0E9CFCF93DF932B
:101FE000DC011596ED91FC910680F781E02DA48926
:101FF000B5898685978520893189EC013D832C83BD
:10200000C089D1899B838A83CF010C9611962D912B
:102010003C9112972817390721F41296DC93CE933E
:102020001197158A148A2C9121502C9320913702F4
:10203000211157C0A285B38584819581268137817E
:10204000EC013D832C83C681D7819B838A83CF019A
:10205000029611962D913C9112972817390721F479
:102060001296DC93CE931197138612862C912150F1
:102070002C93C6892091D4022C1710F4C093D4025B
:1020800029E02C9FE0011124C055DD4F0980DA8141
:10209000C02DD583C4834C815D8157834683AC8139
:1020A000BD8113969C938E9312979D838C83A689F2
:1020B000A29FD0011124A055BD4FB387A2878C9158
:1020C0008F5F8C93A0912C02B0912D029689569629
:1020D0008C91891730F581E080933602DF91CF91A2
:1020E0000895A0919002B0919102B787A6871496A7
:1020F0002D913C911597318B208B1496CD91DC91CD
:1021000015979B838A8315969C938E9314978FE8DB
:1021100092E0958B848B80918F028F5F80938F02EA
:10212000D1CF80E0DBCF0FB6F8940F928091AD0253
:102130009091AE020F900FBE0895809137028F5F8D
:102140008093370208950FB6F8940F92FC01928D98
:102150000F900FBE81E0911180E00895EF92FF9201
:102160000F931F93CF93DF93EC010FB6F8940F9268
:102170001E8D7C0181E1E80EF11C01E01116D4F006
:102180008FEF8E8F0F900FBE0FB6F8940F921D8DAC
:102190007E0188E0E80EF11C01E01116B4F08FEF2B
:1021A0008D8F0F900FBEDF91CF911F910F91FF90F8
:1021B000EF9008958989882319F3C7010E94EE0FD3
:1021C0008111009336021150D9CF8885882339F3C5
:1021D000C7010E94EE0F8111009336021150DDCF2E
:1021E000CF93DF93FC01A085B18582819381248107
:1021F0003581EC013D832C83C481D5819B838A8307
:1022000011968D919C9112978E179F0721F412962B
:10221000DC93CE931197118610868C9181508C930C
:102220008C91DF91CF9108950F931F93CF93DF93FC
:102230008C01FB0180819181D80113968F3F980713
:10224000F1F4E801AF81B88512968D919C911397B6
:1022500093838283EC01FD83EC83B583A48313967F
:10226000FC93EE93129711870087F80180818F5FAE
:102270008083DF91CF911F910F910895D90112961C
:102280002D913C911397E901488159818417950755
:10229000A8F7DACFFC0173836283918780874617A2
:1022A000570790F0421B530B8485958548175907B3
:1022B000C8F4BF016E5F7F4F80914202909143024C
:1022C0000E94141180E008954217530718F4621712
:1022D000730740F4BF016E5F7F4F8091440290917D
:1022E0004502EECF81E00895EF92FF920F931F9386
:1022F000CF93DF93EC018B017A016C857D85600FB4
:10230000711F9801A701CE010E944A11811107C0D7
:10231000DF91CF911F910F91FF90EF9008958C85E1
:102320009D85080F191FE889F989CE010995E5CF28
:10233000EF92FF920F931F93CF93DF938C017B015A
:10234000E0914402F09145020580F681E02DC681BE
:10235000D781CE0102960E94F0108A8982FF0FC0B9
:10236000A701B801CE010E947411E889F989CE0154
:10237000DF91CF911F910F91FF90EF9009948E7F85
:102380008A8BF3CFE0914402F09145028081811164
:102390000DC0809142029091430290934502809338
:1023A0004402F0934302E093420208950580F681CF
:1023B000E02D6FEF7FEF808191810E949811E2CF35
:1023C000FF920F931F93CF93DF93EC01F62E0091B2
:1023D000AD021091AE0280912C0290912D020296D6
:1023E0000E94F010CF3FDC07E9F5FF20D9F1E09122
:1023F0007E02F0917F02A0912C02B0912D021596E1
:10240000FC93EE931497A0912C02B0912D0284813D
:10241000958117969C938E93169780912C0290919C
:102420002D02A481B581029613969C938E931297E8
:1024300080912C0290912D02029695838483E091E5
:102440002C02F0912D028DE792E093878287809194
:102450007D028F5F80937D02DF91CF911F910F915D
:10246000FF900895C00FD11FE0912C02F0912D0232
:10247000D383C28360912C0270912D02C017D107C3
:1024800068F48091790290917A026E5F7F4FDF91BC
:10249000CF911F910F91FF900C94141180917B02AA
:1024A00090917C026E5F7F4F0E94141180915C02BC
:1024B00090915D02C817D90778F6D0935D02C0935A
:1024C0005C02CACFCF93DF93EB0160912C02709135
:1024D0002D02645F7F4F0E94141161E0CE01DF91F5
:1024E000CF910C94E011FC010396928381832FEF2E
:1024F0003FEF34832383968385839087878310827D
:1025000008950F920FB6F8940F921F9211242F92F4
:102510003F924F925F926F927F928F929F92AF9273
:10252000BF92CF92DF92EF92FF920F931F932F9360
:102530003F934F935F936F937F938F939F93AF934B
:10254000BF93CF93DF93EF93FF93A0912C02B091B1
:102550002D020DB60D920EB60D9280913702882392
:1025600021F081E0809336025FC010923602A09184
:102570002C02B0912D02E0912C02F0912D022D91B0
:102580003C918789908D82179307A8F080912C0247
:1025900090912D0280912C0290912D023F9A479AA2
:1025A0002FEF83ED90E3215080409040E1F700C091
:1025B0000000379AF5CF2091D40289E001C0215064
:1025C000422F50E0849FF001859FF00D1124E055CB
:1025D000FD4F9081992399F3A181B28112960D90BC
:1025E000BC91A02DB283A183289FC00111248D54DA
:1025F0009D4FA817B90729F412968D919C9192834B
:10260000818389E0849FF001859FF00D1124E055BE
:10261000FD4F0180F281E02D8681978190932D02FC
:1026200080932C022093D402A0912C02B0912D0211
:10263000CD91CDBFDD91DEBFFF91EF91DF91CF91C5
:10264000BF91AF919F918F917F916F915F914F91CA
:102650003F912F911F910F91FF90EF90DF90CF90BE
:10266000BF90AF909F908F907F906F905F904F90B2
:102670003F902F901F900F900FBE0F9008958F9254
:102680009F92BF92CF92DF92EF92FF920F931F9390
:10269000CF93DF930FB6F8940F9280913702815059
:1026A0008093370280913702882379F080E00F9081
:1026B0000FBEDF91CF911F910F91FF90EF90DF90B0
:1026C000CF90BF909F908F9008958091AC02882307
:1026D00069F3E0909402F0909502F0E0E0E039E0D8
:1026E00041E080918F0281115EC0EF2B11F00E94BA
:1026F000A30FE0903402F0903502E114F10409F4E4
:102700007DC189E0D82ECC24C3940FEF1FEF8091B8
:102710003702811161C1C091AD02D091AE024E016C
:102720008FEF881A980A9092AE028092AD028114BF
:102730009104B9F480917B0290917C0220917902FE
:1027400030917A0230937C0220937B0290937A023C
:10275000809379028091AF028F5F8093AF020E94D5
:10276000A30F80915C0290915D02B12C88169906AE
:1027700008F026C1E0912C02F0912D02E689DE9E40
:10278000F0011124E055FD4F8081823010F0BB2410
:10279000B39480913602811103C0BB2009F425C196
:1027A000C092360222C1D7011696ED91FC91A48900
:1027B000B5896685778580899189EB019D838C83B6
:1027C00080899189EC017B836A83BF01645F7F4FBD
:1027D00011960D911C9112970617170721F4129666
:1027E0009C938E931197158A148A8C9181508C93A7
:1027F000A285B3858481958166817781EC017D8393
:102800006C8366817781EB019B838A83CF0102967B
:1028100011960D911C9112970817190721F4129621
:102820007C936E931197138612862C9121502C93D2
:10283000A6892091D4022A1710F4A093D4023A9FBB
:10284000D0011124A055BD4F11960D90BC91A02D23
:10285000B583A48314966D917C91159777836683D5
:1028600014966D917C911597EB019B838A83159645
:102870009C938E9314979689939FD0011124A05511
:10288000BD4FB387A2878C918F5F8C93A0912C0250
:10289000B0912D0256968C91981708F422CF409350
:1028A00036021FCFE0917B02F0917C020580F68119
:1028B000E02D0680F781E02D8281938188169906AC
:1028C00028F490935D0280935C0254CFC285D38537
:1028D0008481958126813781DC0115963C932E9366
:1028E000149726813781D90113969C938E93129762
:1028F000CF01029649815A814817590711F43A834A
:10290000298313861286288121502883A489B589BA
:102910001097F9F02685378540895189E9015D8353
:102920004C8340895189EA013B832A8311966D913A
:102930007C9112979F01245F3F4F6217730721F428
:1029400012965C934E931197158A148A2C912150FC
:102950002C93A6892091D4022A1710F4A093D402B4
:10296000DA9ED0011124A055BD4F11960D90BC9157
:10297000A02DB583A48314962D913C911597378390
:10298000268314962D913C911597E9019B838A83A8
:1029900015969C938E93149796899D9DD001112432
:1029A000A055BD4FB387A2878C918F5F8C93E09128
:1029B0002C02F0912D028689981710F0BB24B39455
:1029C000E0917B02F0917C02808181116BCF1093AA
:1029D0005D0200935C02CECE80913402909135026C
:1029E00001969093350280933402D1E0ED1AF108FC
:1029F00009F08DCE10923502109234028091360289
:102A0000882309F453CE0E94811281E050CEAF9208
:102A1000BF92DF92EF92FF920F931F93CF93DF93BA
:102A200000D000D01F92CDB7DEB78C017B015D8353
:102A30004C8380E0580198E0A90EB11C0FB6F894C1
:102A40000F92D8015A962C915A975B969C915B975E
:102A5000291708F0AFC05A96DC905A975C964C91B3
:102A60005C9741118CC08D919C91892B11F080E075
:102A70000AC0F801E480F580E114F10431F580E04A
:102A8000F80115821482D394D8015A96DC925A9791
:102A900051969C91992321F0C80141960E94EE0F16
:102AA00081110E9481120F900FBE81E00F900F9054
:102AB0000F900F900F90DF91CF911F910F91FF908A
:102AC000EF90DF90BF90AF900895D70192968C91D0
:102AD0009297815092968C93929756962C915697F6
:102AE00091969C91291759F28111C9CF5701B2E0F3
:102AF000AB0EB11CC5010E94F010F70181A1868BBD
:102B0000482F50E024E030E0241B350B3587248724
:102B10009091D402981710F48093D40289E0849F96
:102B2000D001859FB00D1124A055BD4F11960D9079
:102B3000BC91A02DF701B583A48314962D913C91EF
:102B40001597378326831496ED91FC911597B382E0
:102B5000A2821596BC92AE921497D7015696EC912C
:102B60005697E89FF0011124E055FD4F1B96FC930A
:102B7000EE931A9780818F5F808381E081CF50E050
:102B8000B70112968D919C910E949F1EF801848D31
:102B900022813381820F932F911D9383828324811D
:102BA00035818217930708F462CF808191819383E6
:102BB00082835DCF2C813D81232B21F40F900FBEAA
:102BC00080E074CF811109C08091AF028983809128
:102BD000AD029091AE029B838A830F900FBE0E943C
:102BE0009D100FB6F8940F92F801858D8F3F09F470
:102BF000158ED8015E968C915E978F3F11F45E968C
:102C00001C920F900FBEBE016C5F7F4FCE010196EC
:102C10000E94BB0F811120C00FB6F8940F92F801EB
:102C2000928D838D0F900FBE981310C06C817D81A3
:102C3000C5010E946212C8010E94AE100E943F139B
:102C4000811102C00E94811281E0F8CEC8010E9469
:102C5000AE100E943F13F8CFC8010E94AE100E9430
:102C60003F13AECFCF93DF93EC01892B29F40E9461
:102C70008112DF91CF9108950E949D1060E0CE01F6
:102C80000E94E0110E943F13882389F3F2CFAF9294
:102C9000BF92CF92DF92FF920F931F93CF93DF9358
:102CA00000D000D01F92CDB7DEB78C016B015D83E1
:102CB0004C8380E0580191E1A90EB11C0FB6F89445
:102CC0000F92F801F28CFF20C1F1448D4423B1F042
:102CD00050E086819781840F951F97838683248196
:102CE00035818217930720F08081918197838683B5
:102CF000F80166817781C6010E949F1EFA94F8014F
:102D0000F28E8085882339F0C80108960E94EE0F64
:102D100081110E9481120F900FBE81E00F900F90E1
:102D20000F900F900F90DF91CF911F910F91FF9017
:102D3000DF90CF90BF90AF9008952C813D81232BE1
:102D400021F40F900FBE80E0E9CF811109C080917E
:102D5000AF0289838091AD029091AE029B838A83FA
:102D60000F900FBE0E949D100FB6F8940F92F801BD
:102D7000858D8F3F09F4158EF801868D8F3F09F4FC
:102D8000168E0F900FBEBE016C5F7F4FCE01019675
:102D90000E94BB0F81111BC0C8010E94A310882391
:102DA00081F06C817D81C5010E946212C8010E9480
:102DB000AE100E943F13811102C00E94811281E077
:102DC0007DCFC8010E94AE100E943F13F8CFC8010A
:102DD0000E94AE100E943F13C8010E94A3108823D6
:102DE00071F3B1CF0F920FB6F8940F921F92112486
:102DF0002F923F924F925F926F927F928F929F920B
:102E0000AF92BF92CF92DF92EF92FF920F931F93F8
:102E10002F933F934F935F936F937F938F939F93E2
:102E2000AF93BF93CF93DF93EF93FF93A0912C02C7
:102E3000B0912D020DB60D920EB60D9213BE80917B
:102E400037028111F9C08091AD029091AE020196D6
:102E50009093AE028093AD02009781F520917B02A2
:102E600030917C024091790250917A0250937C0219
:102E700040937B0230937A02209379022091AF0233
:102E80002F5F2093AF02E0917B02F0917C022081C2
:102E9000211107C02FEF3FEF30935D0220935C02BA
:102EA0000DC0E0917B02F0917C020580F681E02D5F
:102EB0002081318130935D0220935C0220915C027D
:102EC00030915D028217930710F420E0A1C020E04A
:102ED00039E0D32EE0917B02F0917C0230813111F8
:102EE00007C08FEF9FEF90935D0280935C0290C0CC
:102EF000E0917B02F0917C020580F681E02D068056
:102F0000F781E02D428153818417950728F450936F
:102F10005D0240935C027CC0A285B38544815581EB
:102F200066817781EA017D836C8366817781EB011D
:102F30005B834A83AF014E5F5F4F11960D911C91E9
:102F400012970417150721F412967C936E9311972C
:102F5000138612863C9131503C93A489B589109711
:102F6000F9F06685778500891189EB011D830C8353
:102F700000891189E8017B836A831196ED90FC90AA
:102F80001297BF01645F7F4FE616F70621F4129691
:102F90001C930E931197158A148A3C9131503C93DF
:102FA000A6893091D4023A1710F4A093D402DA9E85
:102FB000D0011124A055BD4F11960D90BC91A02DAC
:102FC000B583A48314966D917C911597778366835E
:102FD00014966D917C911597EB015B834A8315964E
:102FE0005C934E93149746894D9DD0011124A055B2
:102FF000BD4FB387A2873C913F5F3C93E0912C0289
:10300000F0912D023689431708F464CF21E062CF96
:10301000E0912C02F0912D02E689D9E0ED9FF001BC
:103020001124E055FD4F8081823008F021E080912D
:10303000360281110EC00AC080913402909135028F
:10304000019690933502809334026AC0222309F4DA
:1030500067C080913702882321F081E08093360297
:103060005FC010923602A0912C02B0912D02E09127
:103070002C02F0912D022D913C918789908D821721
:103080009307A8F080912C0290912D0280912C0240
:1030900090912D023F9A479A2FEF83ED90E32150B4
:1030A00080409040E1F700C00000379AF5CF2091B2
:1030B000D40289E001C02150422F50E0849FF001EA
:1030C000859FF00D1124E055FD4F9081992399F3D0
:1030D000A181B28112960D90BC91A02DB283A183E3
:1030E000289FC00111248D549D4FA817B90729F4BA
:1030F00012968D919C919283818389E0849FF00147
:10310000859FF00D1124E055FD4F0180F281E02DE7
:103110008681978190932D0280932C022093D40274
:10312000A0912C02B0912D02CD91CDBFDD91DEBFDB
:10313000FF91EF91DF91CF91BF91AF919F918F91CF
:103140007F916F915F914F913F912F911F910F91BF
:10315000FF90EF90DF90CF90BF90AF909F908F90B7
:103160007F906F905F904F903F902F901F900F90A7
:103170000FBE0F900895CF93DF93009751F0EC01AD
:103180000E949D10CE010E94A11DDF91CF910C9451
:103190003F13DF91CF910895CF93DF9300D000D0FC
:1031A0001F92CDB7DEB7E0914402F0914502108145
:1031B000F12CE12C112329F00580F681E02DE0802F
:1031C000F1800E949D100E9493106C018091390241
:1031D00090913A02C816D90608F04CC00E94C2115C
:1031E000D0923A02C09239020E943F1350E040E070
:1031F000BE016F5F7F4F80915A0290915B020E94E7
:103200004716882381F2898187FDF0CF0C811D81CB
:10321000D8011A968D919C91892B21F0C8010296B4
:103220000E94F0100E9493107C01809139029091CD
:103230003A02E816F90610F40E94C211F0923A021E
:10324000E0923902E981E150E93080F60E2E000C5F
:10325000FF0BEF5CF64ED80152968C9152970C946E
:10326000991EB419B419F819E019F219B419B4195E
:10327000F819E019D0923A02C0923902112351F0A4
:10328000CE14DF0470F00E943F13B601C7010E9404
:103290009811ACCFE0914202F0914302808161E04D
:1032A000811160E000915A0210915B020FB6F89410
:1032B0000F92D8015D968C915D978F3F11F45D96CA
:1032C0001C92F801868D8F3F09F4168E0F900FBE69
:1032D000D8015A968C915A9781113CC05296ED9123
:1032E000FC91A0912C02B0912D021F96FC93EE93BD
:1032F0001E97A0912C02B0912D0284819581519648
:103300009C938E93509780912C0290912D02A481D2
:10331000B5810C9613969C938E93129780912C02F4
:1033200090912D020C9695838483E0912C02F0916C
:103330002D02C8014196958B848BF80181898F5F9E
:10334000818BC7018C199D09662311F08FEF9FEFC8
:103350000E94E011C8010E94AE100E943F1381112B
:1033600045CF0E94811242CF8160F801828B2A8171
:103370003B8164857585620F731FA701C8010E9498
:103380004A11882309F432CFD80152968C91529772
:1033900082FF12C06A817B811C968D919C91680F7F
:1033A000791FA701C8010E947411D8015096ED91B0
:1033B000FC91C80109951ACF8E7FF801828BF5CF59
:1033C000816052968C9352976A817B811D967C9383
:1033D0006E931C976E0D7F1D9701A701C8010E9477
:1033E0004A1104CF81FD04C0C8010E94BB18FECE63
:1033F0008E7FF801828BFACE00E010E080913802D7
:1034000081110CC08091B002823010F00E948112B4
:103410000115110599F30E940000F0CF0FB6F89442
:103420000F92E0918B02F0918C02C681D781CE0180
:1034300002960E94F0108091AC0281508093AC0201
:10344000809138028150809338020F900FBE8F898F
:10345000988D0E94BB18CE010E94BB18CFCFCF938E
:10346000DF93EC010E949D10CE010E94051DEC012E
:103470000E943F13209769F43F9A479A2FE788E309
:1034800091E0215080409040E1F700C00000379A61
:10349000F5CFCE01DF91CF9108957F928F929F92C9
:1034A000AF92BF92CF92DF92EF92FF920F931F9352
:1034B000CF93DF93982EA92E762E872E7A01B22EE7
:1034C000CA010E942F1A6C01892B09F4EDC088E211
:1034D00090E00E942F1AEC01892B09F4E2C088E2E7
:1034E000DE011D928A95E9F7D88ECF8AA70165EA99
:1034F00070E0C6010E94A81EB1E0EB1AF108EF8946
:10350000F88DEE0DFF1D672D782DCE0149969B019C
:10351000285F3F4FDB014D91BD01DC014D93CD0193
:10352000AB0141505109DA014C91442319F0621763
:10353000730781F718A2BE8AB9A21B861A861D8A54
:103540001C8AD987C88784E090E08B1991099D87F0
:103550008C87DB8BCA8B9082DF011197AC9211971D
:103560001C92119780E88C9311971C9257971C928C
:1035700011971C92B397F983E8830115110519F08F
:10358000F801D183C0830FB6F8940F928091AC02FA
:103590008F5F8093AC0280912C0290912D02892B39
:1035A00009F091C0D0932D02C0932C028091AC02FF
:1035B000813081F580EB92E00E94731289EB92E0FA
:1035C0000E94731282EC92E00E9473128BEC92E0E4
:1035D0000E94731281EA92E00E94731288E992E0DD
:1035E0000E9473128FE892E00E94731286E892E0C4
:1035F0000E9473128DE792E00E94731281EA92E0BA
:1036000090937C0280937B0288E992E090937A0207
:10361000809379028091AA028F5F8093AA02AE897B
:103620008091D4028A1710F4A093D40229E02A9F33
:10363000D0011124A055BD4F11960D90BC91A02D25
:10364000BD83AC8314968D919C9115979F838E8337
:103650001496ED91FC911597CE0102969383828387
:1036600015969C938E931497EE89E29FF001112496
:10367000E055FD4FFB87EA8780818F5F80830F9045
:103680000FBE8091AB02882351F0E0912C02F091A3
:103690002D0296898E89981710F40E94811281E07C
:1036A00004C0C6010E94BB188FEFDF91CF911F911C
:1036B0000F91FF90EF90DF90CF90BF90AF909F90D1
:1036C0008F907F9008958091AB028111A3CFE091FC
:1036D0002C02F0912D0296898E89891708F49ACFD1
:1036E000D0932D02C0932C0295CF0F931F93CF93AD
:1036F000DF93082F162F869FC00111244F960E943A
:103700002F1AEC01009779F1111133C09983888346
:103710000B8F1C8F0FB6F8940F92888199812B8D97
:103720004C8DBC01249F600D711D11247D836C8321
:103730001A8E9B838A832150330B429FB001439F93
:10374000700D1124860F971F9F838E838FEF8D8FAF
:103750008E8FCE0108960E947312CE0141960E9470
:1037600073120F900FBECE01DF91CF911F910F9179
:1037700008954F9699838883CBCF0E94F2161895AF
:103780001092D8021092D70288EE93E0A0E0B0E049
:103790008093D9029093DA02A093DB02B093DC020B
:1037A0008EE191E09093D6028093D5028FEF9FEF48
:1037B0009093E2028093E102809149038C3098F467
:1037C00091E0980F9093490380934A0390E0FC01A5
:1037D000EE0FFF1FE80FF91FEB5DFC4F8CED95E03E
:1037E0009283818308958FEF80934A03089578949C
:1037F00084B5826084BD84B5816084BD85B58260F6
:1038000085BD85B5816085BD80916E0081608093A6
:103810006E0010928100809181008260809381000F
:10382000809181008160809381008091800081601F
:1038300080938000809191008260809391008091BC
:1038400091008160809391008091900081608093CD
:1038500090008091C10084608093C1008091C1007C
:1038600082608093C1008091C10081608093C1001B
:103870008091C30081608093C3008091C00082600A
:103880008093C0008091C20081608093C2008091CB
:103890007A00846080937A0080917A0082608093BD
:1038A0007A0080917A008E7F80937A0080917A00EE
:1038B000806880937A0020911101309112018FEF7E
:1038C0009AE0821B930B90930E0180930D010E944E
:1038D000DD020E94B10B0EE512E020E040EC50E06A
:1038E0006EE172E08CEF99E10E944D1A813009F08F
:1038F0007FC00FB6F8940F9280915A0290915B02AC
:10390000892BE1F48FE492E00E94731286E492E046
:103910000E9473128FE492E09093450280934402D8
:1039200086E492E0909343028093420265E08AE04D
:103930000E94751B90935B0280935A020F900FBEFA
:1039400080915A0290915B02892B09F451C008E5DD
:1039500012E023E045E550E063E272E08CEC98E190
:103960000E944D1A813009F043C0F8942FEF3FEFC9
:1039700030935D0220935C028093AB021092AE0202
:103980001092AD02A89588E190EC0FB6F894A89536
:10399000809360000FBE90936000A0912C02B091C4
:1039A0002D02CD91CDBFDD91DEBFFF91EF91DF9173
:1039B000CF91BF91AF919F918F917F916F915F91C7
:1039C0004F913F912F911F910F91FF90EF90DF90BA
:1039D000CF90BF90AF909F908F907F906F905F90AF
:1039E0004F903F902F901F900F900FBE0F90089513
:1039F00080910C010E94DD020E94B10BC0E0D0E07A
:103A00002097F1F30E940000FBCF0F931F93CF93F9
:103A1000DF938230910510F482E090E0E0914F0353
:103A2000F091500330E020E0B0E0A0E0309799F44E
:103A30002115310509F44AC0281B390B2430310502
:103A4000D8F58A819B816115710589F1FB0193830A
:103A50008283FE0111C04081518102811381481788
:103A60005907E0F04817590799F4109761F012963A
:103A70000C93129713961C933296CF01DF91CF913E
:103A80001F910F91089500934F0310935003F4CFAB
:103A90002115310551F04217530738F0A901DB0118
:103AA0009A01BD01DF01F801C1CFEF01F9CF909379
:103AB000500380934F03CDCFFE01E20FF31F81939C
:103AC00091932250310939832883D7CF20914D0318
:103AD00030914E03232B41F420910F0130911001BE
:103AE00030934E0320934D0320910D0130910E0130
:103AF0002115310541F42DB73EB740911101509188
:103B00001201241B350BE0914D03F0914E03E21797
:103B1000F307A0F42E1B3F0B2817390778F0AC01F0
:103B20004E5F5F4F2417350748F04E0F5F1F5093CD
:103B30004E0340934D03819391939FCFF0E0E0E0DB
:103B40009CCFCF93DF930097E9F0FC01329713826B
:103B50001282A0914F03B0915003ED0130E020E0BC
:103B60001097A1F420813181820F931F20914D0382
:103B700030914E032817390709F061C0F0934E03C6
:103B8000E0934D03DF91CF910895EA01CE17DF074F
:103B9000E8F54A815B819E0141155105B1F7E901C4
:103BA000FB83EA8349915991C40FD51FEC17FD0798
:103BB00061F4808191810296840F951FE9019983B8
:103BC0008883828193819B838A83F0E0E0E0129670
:103BD0008D919C9113970097B9F52D913C91119778
:103BE000CD010296820F931F20914D0330914E0319
:103BF0002817390739F6309751F510925003109273
:103C00004F03B0934E03A0934D03BCCFD383C28325
:103C100040815181840F951FC817D90761F44E5F09
:103C20005F4F88819981480F591F518340838A8152
:103C30009B81938382832115310509F0B0CFF093E6
:103C40005003E0934F039ECFFD01DC01C0CF1382F0
:103C50001282D7CF052E97FB1EF400940E94411EBE
:103C600057FD07D00E945C1E07FC03D04EF40C9455
:103C7000411E50954095309521953F4F4F4F5F4FD6
:103C8000089590958095709561957F4F8F4F9F4FC8
:103C900008950E947E1EA59F900DB49F900DA49F35
:103CA000800D911D11240895B7FF0C94491E0E94A8
:103CB000491E821B930B0895A1E21A2EAA1BBB1B5F
:103CC000FD010DC0AA1FBB1FEE1FFF1FA217B307E8
:103CD000E407F50720F0A21BB30BE40BF50B661FFE
:103CE000771F881F991F1A9469F7609570958095C2
:103CF00090959B01AC01BD01CF010895A29FB00139
:103D0000B39FC001A39F700D811D1124911DB29F0F
:103D1000700D811D1124911D0895991B79E004C037
:103D2000991F961708F0961B881F7A95C9F78095FA
:103D30000895EE0FFF1F0590F491E02D0994FB010B
:103D4000DC0102C001900D9241505040D8F7089517
:103D5000DC0101C06D9341505040E0F70895F894A4
:103D6000FFCFFFFFFFFF00E10000000000000300A5
:103D7000005103800000C1808100000000000000AD
:103D80004A04C6036B0460048B046F047B040D0AB1
:103D90000056656869636C65206973206E6F7420D6
:103DA00074686572650056656869636C652069733F
:103DB00020746865726500526564204C4544206932
:103DC00073204F4E00476174654F70656E52656396
:103DD0006569766564203D200050495220496E7027
:103DE000757420697320484947480050495220495A
:103DF0006E707574206973204C4F57004E756D625C
:103E00006572206F662056656869636C6573203D36
:103E100020005374617475732072656365697665FB
:103E200064203D20004761746520436C6F736564B6
:103E300000427574746F6E206973207072657373BD
:103E400065640047617465204F70656E656400525B
:103E50006564204C4544205475726E73204F46466D
:103E60000049525F53656E736F7200536572766FCF
:103E70004D6F746F720050495253656E736F7200CC
:0E3E800049444C4500546D7220537663000097
:1070000055C000006EC000006CC000006AC00000E7
:1070100068C0000066C0000064C0000062C00000DC
:1070200060C000005EC00000B2C400005AC0000092
:1070300058C0000056C0000054C0000052C00000FC
:1070400050C00000D7C000004CC000004AC0000083
:1070500048C0000046C0000044C0000042C000001C
:1070600040C000003EC000003CC000003AC000002C
:1070700038C0000036C0000034C0000032C000003C
:1070800030C000002EC000002CC000002AC000004C
:1070900028C0000026C0000024C0000022C000005C
:1070A00020C000001EC000001CC0000011241FBE34
:1070B000CFEFDAE0DEBFCDBF11E0A0E0B1E0E0EB62
:1070C000FEE702C005900D92A43DB107D9F711E08B
:1070D000A4EDB1E001C01D92AA3EB107E1F755D37E
:1070E000E5C68ECF84E08093E9000DC08091E80072
:1070F0008B778093E80003C08EB3882359F080918A
:10710000E80082FFF9CF8091E80085FFEFCF809102
:10711000F100089580E0089593E09093E900909144
:10712000E80095FF09C08093F10084E690E0909319
:10713000D9018093D80108959091E8009E779093AB
:10714000E80003C09EB3992329F09091E80090FFD6
:10715000F9CFE9CF0895F89410926F001092810052
:10716000109285001092840081E085BF15BE47987B
:107170000C94000008958091DE019091DF0101964A
:107180009093DF018093DE01292F97FF03C03EEF2C
:10719000391B232F220F281710F447980895479A78
:1071A000089584B7877F84BF88E10FB6F8948093F1
:1071B0006000109260000FBE90E880E00FB6F89477
:1071C00090936100809361000FBE81E085BF82E0F3
:1071D00085BF3F9AE1E6F0E09083108247981092D5
:1071E00089009DE79093880080936F0083E08093EF
:1071F0008100B5C31F920F920FB60F9211242F93E7
:107200008F939F93EF93FF931092850010928400C9
:107210008091D8019091D901009729F0019790931E
:10722000D9018093D8018091D6019091D701009720
:1072300029F001979093D7018093D601E0E0F0E028
:1072400085919491019649F08091D4019091D50156
:1072500001969093D5018093D401FF91EF919F9176
:107260008F912F910F900FBE0F901F90189542E0B5
:1072700061EC82E007D342E161E883E003D342E1BD
:1072800060E884E0FFC28091E201982F9F779132FD
:1072900039F59091E301903291F0913209F5813AFC
:1072A000F9F48091E800877F8093E80067E070E060
:1072B00083E091E01AD48091E8008B770FC081328F
:1072C00079F48091E800877F8093E80067E070E0C0
:1072D00083E091E067D48091E8008E778093E800A6
:1072E00008954F925F926F927F928F929F92AF928A
:1072F000BF92CF92DF92EF92FF920F931F93CF93A3
:10730000DF9384E08093E9008091E80082FF2CC243
:1073100084E690E09093D7018093D601E3DE082FB6
:10732000853481F48CE195E29093D5018093D4016A
:1073300007B600FCFDCFF999FECF81E1809357009D
:10734000E89503C0843521F4CDDE8DE0E5DEE3C1B0
:107350008C34D9F3803509F4F8CF843721F484E4F0
:10736000DBDE80E0F3CF813611F489E5EFCF8134A5
:1073700081F4B8DEC82FB6DE90E0880F991F3C2F4D
:10738000330F20E0822B932BAA2797FDA095BA2FCD
:1073900096C1803711F483E5D9CF833549F4CAEC1F
:1073A000D1E08991B9DE21E0C13DD207D1F7B3C167
:1073B000863521F481E3B0DE80E3C8CF833731F432
:1073C00087E8AADE85E9A8DE8EE1C0CF8536B9F46C
:1073D000E0E0F0E083E095E080935700E89507B6A1
:1073E00000FCFDCF90935700E89507B600FCFDCF59
:1073F000E058FF4FE11520E7F20771F7A6CF82377B
:1074000019F4E1E0F0E00EC0863419F4E0E0F0E0B9
:1074100009C08E3419F4E3E0F0E004C0813539F49A
:10742000E2E0F0E089E08093570084918FCF8236CC
:1074300031F489E571DE80E06FDE80E887CF823449
:1074400019F0873609F0D1C01092D5011092D401FD
:1074500049DEC82E47DED82E45DE182F85548230EF
:1074600010F08FE373CFDC2D80E0C82FCD29109270
:107470006F00073609F041C081E180935700E8951D
:10748000B12C01E037C0C090DA01D090DB01E09070
:10749000DC01F090DD011634B9F4EB2DF0E0EC29BD
:1074A000FD29849139DEBB2069F0E2E0CE0ED11CCB
:1074B000E11CF11CC092DA01D092DB01E092DC0108
:1074C000F092DD01B02615C0D701C601B695A7958B
:1074D00097958795D5D420DEF2E0CF0ED11CE11C24
:1074E000F11CC092DA01D092DB01E092DC01F09253
:1074F000DD012197209739F674C08090DA019090D1
:10750000DB01A090DC01B090DD01163409F057C01A
:1075100083E0F40180935700E89507B600FCFDCFA7
:107520004EC0163439F5DD2009F14090DA01509053
:10753000DB016090DC017090DD01D4DDF82EE12CE0
:1075400097012C29F201090100935700E8951124B5
:10755000F2E04F0E511C611C711C4092DA015092F6
:10756000DB016092DC017092DD0102C0BBDDC82E40
:10757000D02623C0B7DD682F8091DA019091DB011E
:10758000A091DC01B091DD01B695A79597958795FF
:107590007FD44091DA015091DB016091DC01709160
:1075A000DD014E5F5F4F6F4F7F4F4093DA01509385
:1075B000DB016093DC017093DD01219703C0C12CD6
:1075C000D12C01E0209709F0ACCF163441F485E0CE
:1075D000F40180935700E89507B600FCFDCF8DE0DD
:1075E0009BDD82E080936F0096C0833471F4C0917C
:1075F000DA01D091DB0176DD90E021E0FE010C01A3
:1076000020935700E8951124A0CE833611F5C09041
:10761000DA01D090DB01E090DC01F090DD0162DD69
:10762000B701A601416090E021E0FA010C0120932E
:107630005700E8951124F2E0CF0ED11CE11CF11C9B
:10764000C092DA01D092DB01E092DC01F092DD0120
:107650007CCE8D3661F4E091DA01F091DB0185E0BA
:1076600080935700E89507B600FCFDCF6ECE8235BB
:1076700051F4E091DA01F091DB01C591D4918D2FA5
:107680004BDD8C2F63CE843419F52CDD682F80916F
:10769000DA019091DB01A091DC01B091DD01B6959A
:1076A000A79597958795F4D38091DA019091DB01A6
:1076B000A091DC01B091DD010296A11DB11D809366
:1076C000DA019093DB01A093DC01B093DD013DCEA4
:1076D0008436F1F4C090DA01D090DB01E090DC0157
:1076E000F090DD01D701C601B695A79597958795CE
:1076F000C7D312DD22E0C20ED11CE11CF11CC092E6
:10770000DA01D092DB01E092DC01F092DD0103C0EE
:107710008B3109F0A6CE83E08093E9009091E800D8
:107720008091E8008E778093E80095FD11C08091EC
:10773000E80080FD04C08EB38111F9CF15C080919F
:10774000E8008E778093E80003C08EB3882361F051
:107750008091E80080FFF9CF84E08093E900809178
:10776000E8008B778093E800DF91CF911F910F9114
:10777000FF90EF90DF90CF90BF90AF909F908F9051
:107780007F906F905F904F90089580910008909146
:107790000108109201081092000844B714BE28E1B5
:1077A0000FB6F89420936000109260000FBEE0E0E6
:1077B000F0E0259134912F3F3F4F79F040FF02C018
:1077C000CADC0BC041FD09C0483039F420910001EA
:1077D000309101018217930799F7E3DC78941092B6
:1077E000D5011092D4010CC07CDD39D38091D40135
:1077F0009091D5018131974210F010920201BBDCCB
:10780000809102018111F0CF8091E000816080932E
:10781000E000A1DC80E090E00895292F30E03327DC
:107820002230310539F02330310549F0213031055E
:1078300089F00BC02EE330E08AE791E01EC0882378
:1078400071F0813089F08230A1F020E030E080E0FA
:1078500090E013C022E130E088EB91E00EC024E01C
:1078600030E086E791E009C022E230E08CE391E06D
:1078700004C028E130E08AE091E0FA01918380833E
:10788000C90108958093E900EBEEF0E0808181600A
:107890008083EDEEF0E010826093EC0040838091F5
:1078A000EE00881F8827881F08958091E20187FDD8
:1078B00005C08091E80080FF0DC010C08091E800F5
:1078C00082FD04C08EB38111F9CF08958091E80044
:1078D0008B7707C08EB38111ECCF08958091E800BB
:1078E0008E778093E80008950F931F93CF93DF93D3
:1078F00041D048D0C8EDD0E088818F7788838881D7
:107900008068888388818F7D888319BC1EBA109215
:10791000E00100EE10E0F80180818B7F8083888198
:107920008160888342E060E080E0ACDFE1EEF0E07F
:1079300080818E7F8083E2EEF0E0808181608083B1
:10794000808188608083F80180818E7F8083888138
:1079500080618883DF91CF911F910F910895E7EDAA
:10796000F0E08081816080838AE482BF81E080933F
:10797000E101BACFE8EDF0E080818E7F8083109244
:10798000E20008951092DA001092E10008951F922B
:107990000F920FB60F9211242F933F934F935F9343
:1079A0006F937F938F939F93AF93BF93EF93FF93C7
:1079B0008091DA0080FF19C08091D80080FF15C047
:1079C0008091DA008E7F8093DA008091D90019BC13
:1079D00080FF09C082E089BD09B400FEFDCF81E0CF
:1079E0008EBB3CD202C01EBA39D28091E10080FF2A
:1079F00017C08091E20080FF13C08091E2008E7F6B
:107A00008093E2008091E20080618093E2008091A7
:107A1000D80080628093D80019BC85E08EBB1ED24E
:107A20008091E10084FF2BC08091E20084FF27C099
:107A300019BC82E089BD09B400FEFDCF8091D80059
:107A40008F7D8093D8008091E1008F7E8093E1004C
:107A50008091E2008F7E8093E2008091E20081605D
:107A60008093E2008091E001811104C08091E300E5
:107A700087FF02C084E001C081E08EBBEFD180911E
:107A8000E10083FF21C08091E20083FF1DC080914F
:107A9000E100877F8093E10082E08EBB1092E001DD
:107AA0008091E1008E7F8093E1008091E2008E7FE3
:107AB0008093E2008091E20080618093E20042E0E6
:107AC00060E080E0DFDECAD1FF91EF91BF91AF911E
:107AD0009F918F917F916F915F914F913F912F91E6
:107AE0000F900FBE0F901F9018954091E801509194
:107AF000E9014617570748F06115710539F44091BF
:107B0000E8004E774093E80001C0BA01FC0140E074
:107B100032C08EB3882309F441C0853009F440C0D7
:107B20008091E80083FD38C08091E80082FD2EC07E
:107B30008091E80080FF1FC09091F3008091F200D7
:107B4000392F20E0A901482BCA0106C0419140937A
:107B5000F1006150710901966115710519F08830C5
:107B60009105A0F341E0089709F040E08091E8001A
:107B70008E778093E8006115710559F64111C9CFE0
:107B800005C08EB3882351F0853051F08091E80014
:107B900082FFF7CF80E0089581E0089582E00895A4
:107BA00083E008956115710529F44091E8004B7751
:107BB0004093E800AC0127C08EB38823B1F1853033
:107BC00071F18091E80083FD2CC08091E80082FF74
:107BD000F3CFFA0107C08091F1008193AF016150AA
:107BE000710961F0AF019091F3008091F200392F9B
:107BF00020E0D901A82BCD01892B69F78091E800FD
:107C00008B778093E80061157105B1F68091E800EB
:107C100080FD09C08EB3882341F08530B9F783E039
:107C2000089581E0089580E0089582E00895EF923C
:107C3000FF920F931F93CF93DF9300D0CDB7DEB7A2
:107C4000E2EEF1E08091F100819381E0EA3EF807F5
:107C5000C9F719DB8091E80083FFE9C08091E20158
:107C60009091E301953009F46FC038F4913071F1CF
:107C700070F0933009F0DBC029C0983009F4AAC035
:107C8000993009F4B9C0963009F0D1C083C080386A
:107C900009F4CDC0823809F0CAC08091E601909104
:107CA000E701877099278093E9009091EB0010928B
:107CB000E9008091E800877F8093E80095FB8827A2
:107CC00080F98093F1001092F1008FC0882319F0A1
:107CD000823009F0ACC08F71823009F0A8C0809169
:107CE000E40181112BC08091E6019091E70187703A
:107CF0009927009709F49BC08093E9002091EB003D
:107D000020FF1CC02091E301233021F48091EB007F
:107D1000806212C09091EB0090619093EB0021E0A3
:107D200030E001C0220F8A95EAF72093EA00109212
:107D3000EA008091EB0088608093EB001092E900EC
:107D40008091E800877F54C0811171C00091E401E7
:107D50001091E5010F771127E02EFFB6F89480917E
:107D6000E800877F8093E800A0DD8091E80080FF35
:107D7000FCCF8091E3008078802B8093E3008068C3
:107D80008093E300EE2011F083E001C082E08EBB1F
:107D9000FFBE4DC08058823008F049C0AE014F5F31
:107DA0005F4F6091E6018091E4019091E50135DD3E
:107DB000009709F43CC02091E800277F2093E80059
:107DC000BC0189819A8191DE8091E8008B77809354
:107DD000E8002DC0803859F58091E800877F8093B6
:107DE000E8008091E0018093F1008091E8008E77B7
:107DF0008093E8005ADD1BC0811119C09091E40105
:107E00009230A8F48091E800877F8093E8009093F7
:107E1000E0014BDD8091E001811104C08091E3001D
:107E200087FF02C084E001C081E08EBB20DA809130
:107E3000E80083FF0AC08091EB0080628093EB0032
:107E40008091E800877F8093E8000F900F90DF918A
:107E5000CF911F910F91FF90EF9008950895CF93C8
:107E60008EB3882359F0C091E900C7701092E900E1
:107E70008091E80083FDDBDEC093E900CF91089597
:107E8000F999FECF92BD81BDF89A992780B50895E2
:107E9000262FF999FECF1FBA92BD81BD20BD0FB626
:107EA000F894FA9AF99A0FBE01960895F894FFCFC4
:107EB000777701000000000000081803410064000B
:107EC00061006600720075006900740020004900BE
:107ED0006E00640075007300740072006900650034
:107EE000730020004C004C004300000022034100BE
:107EF0006400610066007200750069007400200073
:107F0000430069007200630075006900740020007E
:107F100050006C0061007900670072006F0075000E
:107F20006E00640000000403090409023E0002011F
:107F30000080320904000001020201000524001043
:107F40000104240204052406000107058203080039
:107F5000FF09040100020A000000070504021000E6
:107F60000107058302100001120110010200000840
:107F70009A23110001000201000143415445524976
:047F80004E4100006E
:00000001FF
